{
	"contracts/WalletMultiChain.sol": {
		"WalletMultiChain": {
			"abi": [
				{
					"inputs": [],
					"stateMutability": "payable",
					"type": "constructor"
				},
				{
					"anonymous": false,
					"inputs": [
						{
							"indexed": true,
							"internalType": "address",
							"name": "from",
							"type": "address"
						},
						{
							"indexed": false,
							"internalType": "uint256",
							"name": "amount",
							"type": "uint256"
						}
					],
					"name": "DepositoRecibido",
					"type": "event"
				},
				{
					"anonymous": false,
					"inputs": [
						{
							"indexed": true,
							"internalType": "address",
							"name": "to",
							"type": "address"
						},
						{
							"indexed": false,
							"internalType": "uint256",
							"name": "amount",
							"type": "uint256"
						}
					],
					"name": "TransferenciaRealizada",
					"type": "event"
				},
				{
					"inputs": [],
					"name": "donar",
					"outputs": [],
					"stateMutability": "payable",
					"type": "function"
				},
				{
					"inputs": [
						{
							"internalType": "address payable",
							"name": "destinatario",
							"type": "address"
						},
						{
							"internalType": "uint256",
							"name": "monto",
							"type": "uint256"
						}
					],
					"name": "enviarETH",
					"outputs": [],
					"stateMutability": "nonpayable",
					"type": "function"
				},
				{
					"inputs": [],
					"name": "owner",
					"outputs": [
						{
							"internalType": "address",
							"name": "",
							"type": "address"
						}
					],
					"stateMutability": "view",
					"type": "function"
				},
				{
					"inputs": [],
					"name": "verBalance",
					"outputs": [
						{
							"internalType": "uint256",
							"name": "",
							"type": "uint256"
						}
					],
					"stateMutability": "view",
					"type": "function"
				},
				{
					"stateMutability": "payable",
					"type": "receive"
				}
			],
			"devdoc": {
				"details": "Asegúrate de enviar fondos al contrato antes de intentar transferir.",
				"kind": "dev",
				"methods": {
					"constructor": {
						"details": "Constructor, se ejecuta una vez al desplegar y define al owner."
					},
					"enviarETH(address,uint256)": {
						"params": {
							"destinatario": "Dirección que recibirá el ETH.",
							"monto": "Monto a enviar en wei."
						}
					}
				},
				"title": "WalletMultiChain",
				"version": 1
			},
			"evm": {
				"assembly": "    /* \"contracts/WalletMultiChain.sol\":298:1913  contract WalletMultiChain {... */\n  mstore(0x40, 0x80)\n    /* \"contracts/WalletMultiChain.sol\":756:766  msg.sender */\n  caller\n    /* \"contracts/WalletMultiChain.sol\":748:753  owner */\n  0x00\n  dup1\n    /* \"contracts/WalletMultiChain.sol\":748:766  owner = msg.sender */\n  0x0100\n  exp\n  dup2\n  sload\n  dup2\n  0xffffffffffffffffffffffffffffffffffffffff\n  mul\n  not\n  and\n  swap1\n  dup4\n  0xffffffffffffffffffffffffffffffffffffffff\n  and\n  mul\n  or\n  swap1\n  sstore\n  pop\n    /* \"contracts/WalletMultiChain.sol\":298:1913  contract WalletMultiChain {... */\n  dataSize(sub_0)\n  dup1\n  dataOffset(sub_0)\n  0x00\n  codecopy\n  0x00\n  return\nstop\n\nsub_0: assembly {\n        /* \"contracts/WalletMultiChain.sol\":298:1913  contract WalletMultiChain {... */\n      mstore(0x40, 0x80)\n      jumpi(tag_1, lt(calldatasize, 0x04))\n      shr(0xe0, calldataload(0x00))\n      dup1\n      0x13fc9b12\n      eq\n      tag_3\n      jumpi\n      dup1\n      0x8da5cb5b\n      eq\n      tag_4\n      jumpi\n      dup1\n      0xa5505d80\n      eq\n      tag_5\n      jumpi\n      dup1\n      0xd5cf1273\n      eq\n      tag_6\n      jumpi\n      jump(tag_2)\n    tag_1:\n      jumpi(tag_2, calldatasize)\n        /* \"contracts/WalletMultiChain.sol\":945:955  msg.sender */\n      caller\n        /* \"contracts/WalletMultiChain.sol\":928:967  DepositoRecibido(msg.sender, msg.value) */\n      0xffffffffffffffffffffffffffffffffffffffff\n      and\n      0x4374619f2e5fd6132e510408d9f57f96682c8d8be8400a2204dc0a0e7347adea\n        /* \"contracts/WalletMultiChain.sol\":957:966  msg.value */\n      callvalue\n        /* \"contracts/WalletMultiChain.sol\":928:967  DepositoRecibido(msg.sender, msg.value) */\n      mload(0x40)\n      tag_9\n      swap2\n      swap1\n      tag_10\n      jump\t// in\n    tag_9:\n      mload(0x40)\n      dup1\n      swap2\n      sub\n      swap1\n      log2\n        /* \"contracts/WalletMultiChain.sol\":298:1913  contract WalletMultiChain {... */\n      stop\n    tag_2:\n      0x00\n      dup1\n      revert\n        /* \"contracts/WalletMultiChain.sol\":1815:1910  function donar() public payable {... */\n    tag_3:\n      tag_11\n      tag_12\n      jump\t// in\n    tag_11:\n      stop\n        /* \"contracts/WalletMultiChain.sol\":331:351  address public owner */\n    tag_4:\n      callvalue\n      dup1\n      iszero\n      tag_13\n      jumpi\n      0x00\n      dup1\n      revert\n    tag_13:\n      pop\n      tag_14\n      tag_15\n      jump\t// in\n    tag_14:\n      mload(0x40)\n      tag_16\n      swap2\n      swap1\n      tag_17\n      jump\t// in\n    tag_16:\n      mload(0x40)\n      dup1\n      swap2\n      sub\n      swap1\n      return\n        /* \"contracts/WalletMultiChain.sol\":1329:1722  function enviarETH(address payable destinatario, uint256 monto) public {... */\n    tag_5:\n      callvalue\n      dup1\n      iszero\n      tag_18\n      jumpi\n      0x00\n      dup1\n      revert\n    tag_18:\n      pop\n      tag_19\n      0x04\n      dup1\n      calldatasize\n      sub\n      dup2\n      add\n      swap1\n      tag_20\n      swap2\n      swap1\n      tag_21\n      jump\t// in\n    tag_20:\n      tag_22\n      jump\t// in\n    tag_19:\n      stop\n        /* \"contracts/WalletMultiChain.sol\":1033:1132  function verBalance() public view returns (uint256) {... */\n    tag_6:\n      callvalue\n      dup1\n      iszero\n      tag_23\n      jumpi\n      0x00\n      dup1\n      revert\n    tag_23:\n      pop\n      tag_24\n      tag_25\n      jump\t// in\n    tag_24:\n      mload(0x40)\n      tag_26\n      swap2\n      swap1\n      tag_10\n      jump\t// in\n    tag_26:\n      mload(0x40)\n      dup1\n      swap2\n      sub\n      swap1\n      return\n        /* \"contracts/WalletMultiChain.sol\":1815:1910  function donar() public payable {... */\n    tag_12:\n        /* \"contracts/WalletMultiChain.sol\":1880:1890  msg.sender */\n      caller\n        /* \"contracts/WalletMultiChain.sol\":1863:1902  DepositoRecibido(msg.sender, msg.value) */\n      0xffffffffffffffffffffffffffffffffffffffff\n      and\n      0x4374619f2e5fd6132e510408d9f57f96682c8d8be8400a2204dc0a0e7347adea\n        /* \"contracts/WalletMultiChain.sol\":1892:1901  msg.value */\n      callvalue\n        /* \"contracts/WalletMultiChain.sol\":1863:1902  DepositoRecibido(msg.sender, msg.value) */\n      mload(0x40)\n      tag_28\n      swap2\n      swap1\n      tag_10\n      jump\t// in\n    tag_28:\n      mload(0x40)\n      dup1\n      swap2\n      sub\n      swap1\n      log2\n        /* \"contracts/WalletMultiChain.sol\":1815:1910  function donar() public payable {... */\n      jump\t// out\n        /* \"contracts/WalletMultiChain.sol\":331:351  address public owner */\n    tag_15:\n      0x00\n      dup1\n      sload\n      swap1\n      0x0100\n      exp\n      swap1\n      div\n      0xffffffffffffffffffffffffffffffffffffffff\n      and\n      dup2\n      jump\t// out\n        /* \"contracts/WalletMultiChain.sol\":1329:1722  function enviarETH(address payable destinatario, uint256 monto) public {... */\n    tag_22:\n        /* \"contracts/WalletMultiChain.sol\":1433:1438  owner */\n      0x00\n      dup1\n      sload\n      swap1\n      0x0100\n      exp\n      swap1\n      div\n      0xffffffffffffffffffffffffffffffffffffffff\n      and\n        /* \"contracts/WalletMultiChain.sol\":1419:1438  msg.sender == owner */\n      0xffffffffffffffffffffffffffffffffffffffff\n      and\n        /* \"contracts/WalletMultiChain.sol\":1419:1429  msg.sender */\n      caller\n        /* \"contracts/WalletMultiChain.sol\":1419:1438  msg.sender == owner */\n      0xffffffffffffffffffffffffffffffffffffffff\n      and\n      eq\n        /* \"contracts/WalletMultiChain.sol\":1411:1460  require(msg.sender == owner, \"No tienes permiso\") */\n      tag_30\n      jumpi\n      mload(0x40)\n      0x08c379a000000000000000000000000000000000000000000000000000000000\n      dup2\n      mstore\n      0x04\n      add\n      tag_31\n      swap1\n      tag_32\n      jump\t// in\n    tag_31:\n      mload(0x40)\n      dup1\n      swap2\n      sub\n      swap1\n      revert\n    tag_30:\n        /* \"contracts/WalletMultiChain.sol\":1504:1509  monto */\n      dup1\n        /* \"contracts/WalletMultiChain.sol\":1479:1500  address(this).balance */\n      selfbalance\n        /* \"contracts/WalletMultiChain.sol\":1479:1509  address(this).balance >= monto */\n      lt\n      iszero\n        /* \"contracts/WalletMultiChain.sol\":1471:1534  require(address(this).balance >= monto, \"Fondos insuficientes\") */\n      tag_33\n      jumpi\n      mload(0x40)\n      0x08c379a000000000000000000000000000000000000000000000000000000000\n      dup2\n      mstore\n      0x04\n      add\n      tag_34\n      swap1\n      tag_35\n      jump\t// in\n    tag_34:\n      mload(0x40)\n      dup1\n      swap2\n      sub\n      swap1\n      revert\n    tag_33:\n        /* \"contracts/WalletMultiChain.sol\":1548:1560  bool enviado */\n      0x00\n        /* \"contracts/WalletMultiChain.sol\":1566:1578  destinatario */\n      dup3\n        /* \"contracts/WalletMultiChain.sol\":1566:1583  destinatario.call */\n      0xffffffffffffffffffffffffffffffffffffffff\n      and\n        /* \"contracts/WalletMultiChain.sol\":1591:1596  monto */\n      dup3\n        /* \"contracts/WalletMultiChain.sol\":1566:1601  destinatario.call{value: monto}(\"\") */\n      mload(0x40)\n      tag_36\n      swap1\n      tag_37\n      jump\t// in\n    tag_36:\n      0x00\n      mload(0x40)\n      dup1\n      dup4\n      sub\n      dup2\n      dup6\n      dup8\n      gas\n      call\n      swap3\n      pop\n      pop\n      pop\n      returndatasize\n      dup1\n      0x00\n      dup2\n      eq\n      tag_40\n      jumpi\n      mload(0x40)\n      swap2\n      pop\n      and(add(returndatasize, 0x3f), not(0x1f))\n      dup3\n      add\n      0x40\n      mstore\n      returndatasize\n      dup3\n      mstore\n      returndatasize\n      0x00\n      0x20\n      dup5\n      add\n      returndatacopy\n      jump(tag_39)\n    tag_40:\n      0x60\n      swap2\n      pop\n    tag_39:\n      pop\n        /* \"contracts/WalletMultiChain.sol\":1547:1601  (bool enviado, ) = destinatario.call{value: monto}(\"\") */\n      pop\n      swap1\n      pop\n        /* \"contracts/WalletMultiChain.sol\":1620:1627  enviado */\n      dup1\n        /* \"contracts/WalletMultiChain.sol\":1612:1653  require(enviado, \"Transferencia fallida\") */\n      tag_41\n      jumpi\n      mload(0x40)\n      0x08c379a000000000000000000000000000000000000000000000000000000000\n      dup2\n      mstore\n      0x04\n      add\n      tag_42\n      swap1\n      tag_43\n      jump\t// in\n    tag_42:\n      mload(0x40)\n      dup1\n      swap2\n      sub\n      swap1\n      revert\n    tag_41:\n        /* \"contracts/WalletMultiChain.sol\":1694:1706  destinatario */\n      dup3\n        /* \"contracts/WalletMultiChain.sol\":1671:1714  TransferenciaRealizada(destinatario, monto) */\n      0xffffffffffffffffffffffffffffffffffffffff\n      and\n      0x8ab623b234bc5cc9673d9b6beca9ff6caa41ccd58da7d07e8b57692b9a1e3430\n        /* \"contracts/WalletMultiChain.sol\":1708:1713  monto */\n      dup4\n        /* \"contracts/WalletMultiChain.sol\":1671:1714  TransferenciaRealizada(destinatario, monto) */\n      mload(0x40)\n      tag_44\n      swap2\n      swap1\n      tag_10\n      jump\t// in\n    tag_44:\n      mload(0x40)\n      dup1\n      swap2\n      sub\n      swap1\n      log2\n        /* \"contracts/WalletMultiChain.sol\":1400:1722  {... */\n      pop\n        /* \"contracts/WalletMultiChain.sol\":1329:1722  function enviarETH(address payable destinatario, uint256 monto) public {... */\n      pop\n      pop\n      jump\t// out\n        /* \"contracts/WalletMultiChain.sol\":1033:1132  function verBalance() public view returns (uint256) {... */\n    tag_25:\n        /* \"contracts/WalletMultiChain.sol\":1076:1083  uint256 */\n      0x00\n        /* \"contracts/WalletMultiChain.sol\":1103:1124  address(this).balance */\n      selfbalance\n        /* \"contracts/WalletMultiChain.sol\":1096:1124  return address(this).balance */\n      swap1\n      pop\n        /* \"contracts/WalletMultiChain.sol\":1033:1132  function verBalance() public view returns (uint256) {... */\n      swap1\n      jump\t// out\n        /* \"#utility.yul\":7:84   */\n    tag_46:\n        /* \"#utility.yul\":44:51   */\n      0x00\n        /* \"#utility.yul\":73:78   */\n      dup2\n        /* \"#utility.yul\":62:78   */\n      swap1\n      pop\n        /* \"#utility.yul\":7:84   */\n      swap2\n      swap1\n      pop\n      jump\t// out\n        /* \"#utility.yul\":90:208   */\n    tag_47:\n        /* \"#utility.yul\":177:201   */\n      tag_72\n        /* \"#utility.yul\":195:200   */\n      dup2\n        /* \"#utility.yul\":177:201   */\n      tag_46\n      jump\t// in\n    tag_72:\n        /* \"#utility.yul\":172:175   */\n      dup3\n        /* \"#utility.yul\":165:202   */\n      mstore\n        /* \"#utility.yul\":90:208   */\n      pop\n      pop\n      jump\t// out\n        /* \"#utility.yul\":214:436   */\n    tag_10:\n        /* \"#utility.yul\":307:311   */\n      0x00\n        /* \"#utility.yul\":345:347   */\n      0x20\n        /* \"#utility.yul\":334:343   */\n      dup3\n        /* \"#utility.yul\":330:348   */\n      add\n        /* \"#utility.yul\":322:348   */\n      swap1\n      pop\n        /* \"#utility.yul\":358:429   */\n      tag_74\n        /* \"#utility.yul\":426:427   */\n      0x00\n        /* \"#utility.yul\":415:424   */\n      dup4\n        /* \"#utility.yul\":411:428   */\n      add\n        /* \"#utility.yul\":402:408   */\n      dup5\n        /* \"#utility.yul\":358:429   */\n      tag_47\n      jump\t// in\n    tag_74:\n        /* \"#utility.yul\":214:436   */\n      swap3\n      swap2\n      pop\n      pop\n      jump\t// out\n        /* \"#utility.yul\":442:568   */\n    tag_48:\n        /* \"#utility.yul\":479:486   */\n      0x00\n        /* \"#utility.yul\":519:561   */\n      0xffffffffffffffffffffffffffffffffffffffff\n        /* \"#utility.yul\":512:517   */\n      dup3\n        /* \"#utility.yul\":508:562   */\n      and\n        /* \"#utility.yul\":497:562   */\n      swap1\n      pop\n        /* \"#utility.yul\":442:568   */\n      swap2\n      swap1\n      pop\n      jump\t// out\n        /* \"#utility.yul\":574:670   */\n    tag_49:\n        /* \"#utility.yul\":611:618   */\n      0x00\n        /* \"#utility.yul\":640:664   */\n      tag_77\n        /* \"#utility.yul\":658:663   */\n      dup3\n        /* \"#utility.yul\":640:664   */\n      tag_48\n      jump\t// in\n    tag_77:\n        /* \"#utility.yul\":629:664   */\n      swap1\n      pop\n        /* \"#utility.yul\":574:670   */\n      swap2\n      swap1\n      pop\n      jump\t// out\n        /* \"#utility.yul\":676:794   */\n    tag_50:\n        /* \"#utility.yul\":763:787   */\n      tag_79\n        /* \"#utility.yul\":781:786   */\n      dup2\n        /* \"#utility.yul\":763:787   */\n      tag_49\n      jump\t// in\n    tag_79:\n        /* \"#utility.yul\":758:761   */\n      dup3\n        /* \"#utility.yul\":751:788   */\n      mstore\n        /* \"#utility.yul\":676:794   */\n      pop\n      pop\n      jump\t// out\n        /* \"#utility.yul\":800:1022   */\n    tag_17:\n        /* \"#utility.yul\":893:897   */\n      0x00\n        /* \"#utility.yul\":931:933   */\n      0x20\n        /* \"#utility.yul\":920:929   */\n      dup3\n        /* \"#utility.yul\":916:934   */\n      add\n        /* \"#utility.yul\":908:934   */\n      swap1\n      pop\n        /* \"#utility.yul\":944:1015   */\n      tag_81\n        /* \"#utility.yul\":1012:1013   */\n      0x00\n        /* \"#utility.yul\":1001:1010   */\n      dup4\n        /* \"#utility.yul\":997:1014   */\n      add\n        /* \"#utility.yul\":988:994   */\n      dup5\n        /* \"#utility.yul\":944:1015   */\n      tag_50\n      jump\t// in\n    tag_81:\n        /* \"#utility.yul\":800:1022   */\n      swap3\n      swap2\n      pop\n      pop\n      jump\t// out\n        /* \"#utility.yul\":1109:1226   */\n    tag_52:\n        /* \"#utility.yul\":1218:1219   */\n      0x00\n        /* \"#utility.yul\":1215:1216   */\n      dup1\n        /* \"#utility.yul\":1208:1220   */\n      revert\n        /* \"#utility.yul\":1355:1459   */\n    tag_54:\n        /* \"#utility.yul\":1400:1407   */\n      0x00\n        /* \"#utility.yul\":1429:1453   */\n      tag_86\n        /* \"#utility.yul\":1447:1452   */\n      dup3\n        /* \"#utility.yul\":1429:1453   */\n      tag_48\n      jump\t// in\n    tag_86:\n        /* \"#utility.yul\":1418:1453   */\n      swap1\n      pop\n        /* \"#utility.yul\":1355:1459   */\n      swap2\n      swap1\n      pop\n      jump\t// out\n        /* \"#utility.yul\":1465:1603   */\n    tag_55:\n        /* \"#utility.yul\":1546:1578   */\n      tag_88\n        /* \"#utility.yul\":1572:1577   */\n      dup2\n        /* \"#utility.yul\":1546:1578   */\n      tag_54\n      jump\t// in\n    tag_88:\n        /* \"#utility.yul\":1539:1544   */\n      dup2\n        /* \"#utility.yul\":1536:1579   */\n      eq\n        /* \"#utility.yul\":1526:1597   */\n      tag_89\n      jumpi\n        /* \"#utility.yul\":1593:1594   */\n      0x00\n        /* \"#utility.yul\":1590:1591   */\n      dup1\n        /* \"#utility.yul\":1583:1595   */\n      revert\n        /* \"#utility.yul\":1526:1597   */\n    tag_89:\n        /* \"#utility.yul\":1465:1603   */\n      pop\n      jump\t// out\n        /* \"#utility.yul\":1609:1764   */\n    tag_56:\n        /* \"#utility.yul\":1663:1668   */\n      0x00\n        /* \"#utility.yul\":1701:1707   */\n      dup2\n        /* \"#utility.yul\":1688:1708   */\n      calldataload\n        /* \"#utility.yul\":1679:1708   */\n      swap1\n      pop\n        /* \"#utility.yul\":1717:1758   */\n      tag_91\n        /* \"#utility.yul\":1752:1757   */\n      dup2\n        /* \"#utility.yul\":1717:1758   */\n      tag_55\n      jump\t// in\n    tag_91:\n        /* \"#utility.yul\":1609:1764   */\n      swap3\n      swap2\n      pop\n      pop\n      jump\t// out\n        /* \"#utility.yul\":1770:1892   */\n    tag_57:\n        /* \"#utility.yul\":1843:1867   */\n      tag_93\n        /* \"#utility.yul\":1861:1866   */\n      dup2\n        /* \"#utility.yul\":1843:1867   */\n      tag_46\n      jump\t// in\n    tag_93:\n        /* \"#utility.yul\":1836:1841   */\n      dup2\n        /* \"#utility.yul\":1833:1868   */\n      eq\n        /* \"#utility.yul\":1823:1886   */\n      tag_94\n      jumpi\n        /* \"#utility.yul\":1882:1883   */\n      0x00\n        /* \"#utility.yul\":1879:1880   */\n      dup1\n        /* \"#utility.yul\":1872:1884   */\n      revert\n        /* \"#utility.yul\":1823:1886   */\n    tag_94:\n        /* \"#utility.yul\":1770:1892   */\n      pop\n      jump\t// out\n        /* \"#utility.yul\":1898:2037   */\n    tag_58:\n        /* \"#utility.yul\":1944:1949   */\n      0x00\n        /* \"#utility.yul\":1982:1988   */\n      dup2\n        /* \"#utility.yul\":1969:1989   */\n      calldataload\n        /* \"#utility.yul\":1960:1989   */\n      swap1\n      pop\n        /* \"#utility.yul\":1998:2031   */\n      tag_96\n        /* \"#utility.yul\":2025:2030   */\n      dup2\n        /* \"#utility.yul\":1998:2031   */\n      tag_57\n      jump\t// in\n    tag_96:\n        /* \"#utility.yul\":1898:2037   */\n      swap3\n      swap2\n      pop\n      pop\n      jump\t// out\n        /* \"#utility.yul\":2043:2533   */\n    tag_21:\n        /* \"#utility.yul\":2119:2125   */\n      0x00\n        /* \"#utility.yul\":2127:2133   */\n      dup1\n        /* \"#utility.yul\":2176:2178   */\n      0x40\n        /* \"#utility.yul\":2164:2173   */\n      dup4\n        /* \"#utility.yul\":2155:2162   */\n      dup6\n        /* \"#utility.yul\":2151:2174   */\n      sub\n        /* \"#utility.yul\":2147:2179   */\n      slt\n        /* \"#utility.yul\":2144:2263   */\n      iszero\n      tag_98\n      jumpi\n        /* \"#utility.yul\":2182:2261   */\n      tag_99\n      tag_52\n      jump\t// in\n    tag_99:\n        /* \"#utility.yul\":2144:2263   */\n    tag_98:\n        /* \"#utility.yul\":2302:2303   */\n      0x00\n        /* \"#utility.yul\":2327:2388   */\n      tag_100\n        /* \"#utility.yul\":2380:2387   */\n      dup6\n        /* \"#utility.yul\":2371:2377   */\n      dup3\n        /* \"#utility.yul\":2360:2369   */\n      dup7\n        /* \"#utility.yul\":2356:2378   */\n      add\n        /* \"#utility.yul\":2327:2388   */\n      tag_56\n      jump\t// in\n    tag_100:\n        /* \"#utility.yul\":2317:2388   */\n      swap3\n      pop\n        /* \"#utility.yul\":2273:2398   */\n      pop\n        /* \"#utility.yul\":2437:2439   */\n      0x20\n        /* \"#utility.yul\":2463:2516   */\n      tag_101\n        /* \"#utility.yul\":2508:2515   */\n      dup6\n        /* \"#utility.yul\":2499:2505   */\n      dup3\n        /* \"#utility.yul\":2488:2497   */\n      dup7\n        /* \"#utility.yul\":2484:2506   */\n      add\n        /* \"#utility.yul\":2463:2516   */\n      tag_58\n      jump\t// in\n    tag_101:\n        /* \"#utility.yul\":2453:2516   */\n      swap2\n      pop\n        /* \"#utility.yul\":2408:2526   */\n      pop\n        /* \"#utility.yul\":2043:2533   */\n      swap3\n      pop\n      swap3\n      swap1\n      pop\n      jump\t// out\n        /* \"#utility.yul\":2539:2708   */\n    tag_59:\n        /* \"#utility.yul\":2623:2634   */\n      0x00\n        /* \"#utility.yul\":2657:2663   */\n      dup3\n        /* \"#utility.yul\":2652:2655   */\n      dup3\n        /* \"#utility.yul\":2645:2664   */\n      mstore\n        /* \"#utility.yul\":2697:2701   */\n      0x20\n        /* \"#utility.yul\":2692:2695   */\n      dup3\n        /* \"#utility.yul\":2688:2702   */\n      add\n        /* \"#utility.yul\":2673:2702   */\n      swap1\n      pop\n        /* \"#utility.yul\":2539:2708   */\n      swap3\n      swap2\n      pop\n      pop\n      jump\t// out\n        /* \"#utility.yul\":2714:2881   */\n    tag_60:\n        /* \"#utility.yul\":2854:2873   */\n      0x4e6f207469656e6573207065726d69736f000000000000000000000000000000\n        /* \"#utility.yul\":2850:2851   */\n      0x00\n        /* \"#utility.yul\":2842:2848   */\n      dup3\n        /* \"#utility.yul\":2838:2852   */\n      add\n        /* \"#utility.yul\":2831:2874   */\n      mstore\n        /* \"#utility.yul\":2714:2881   */\n      pop\n      jump\t// out\n        /* \"#utility.yul\":2887:3253   */\n    tag_61:\n        /* \"#utility.yul\":3029:3032   */\n      0x00\n        /* \"#utility.yul\":3050:3117   */\n      tag_105\n        /* \"#utility.yul\":3114:3116   */\n      0x11\n        /* \"#utility.yul\":3109:3112   */\n      dup4\n        /* \"#utility.yul\":3050:3117   */\n      tag_59\n      jump\t// in\n    tag_105:\n        /* \"#utility.yul\":3043:3117   */\n      swap2\n      pop\n        /* \"#utility.yul\":3126:3219   */\n      tag_106\n        /* \"#utility.yul\":3215:3218   */\n      dup3\n        /* \"#utility.yul\":3126:3219   */\n      tag_60\n      jump\t// in\n    tag_106:\n        /* \"#utility.yul\":3244:3246   */\n      0x20\n        /* \"#utility.yul\":3239:3242   */\n      dup3\n        /* \"#utility.yul\":3235:3247   */\n      add\n        /* \"#utility.yul\":3228:3247   */\n      swap1\n      pop\n        /* \"#utility.yul\":2887:3253   */\n      swap2\n      swap1\n      pop\n      jump\t// out\n        /* \"#utility.yul\":3259:3678   */\n    tag_32:\n        /* \"#utility.yul\":3425:3429   */\n      0x00\n        /* \"#utility.yul\":3463:3465   */\n      0x20\n        /* \"#utility.yul\":3452:3461   */\n      dup3\n        /* \"#utility.yul\":3448:3466   */\n      add\n        /* \"#utility.yul\":3440:3466   */\n      swap1\n      pop\n        /* \"#utility.yul\":3512:3521   */\n      dup2\n        /* \"#utility.yul\":3506:3510   */\n      dup2\n        /* \"#utility.yul\":3502:3522   */\n      sub\n        /* \"#utility.yul\":3498:3499   */\n      0x00\n        /* \"#utility.yul\":3487:3496   */\n      dup4\n        /* \"#utility.yul\":3483:3500   */\n      add\n        /* \"#utility.yul\":3476:3523   */\n      mstore\n        /* \"#utility.yul\":3540:3671   */\n      tag_108\n        /* \"#utility.yul\":3666:3670   */\n      dup2\n        /* \"#utility.yul\":3540:3671   */\n      tag_61\n      jump\t// in\n    tag_108:\n        /* \"#utility.yul\":3532:3671   */\n      swap1\n      pop\n        /* \"#utility.yul\":3259:3678   */\n      swap2\n      swap1\n      pop\n      jump\t// out\n        /* \"#utility.yul\":3684:3854   */\n    tag_62:\n        /* \"#utility.yul\":3824:3846   */\n      0x466f6e646f7320696e737566696369656e746573000000000000000000000000\n        /* \"#utility.yul\":3820:3821   */\n      0x00\n        /* \"#utility.yul\":3812:3818   */\n      dup3\n        /* \"#utility.yul\":3808:3822   */\n      add\n        /* \"#utility.yul\":3801:3847   */\n      mstore\n        /* \"#utility.yul\":3684:3854   */\n      pop\n      jump\t// out\n        /* \"#utility.yul\":3860:4226   */\n    tag_63:\n        /* \"#utility.yul\":4002:4005   */\n      0x00\n        /* \"#utility.yul\":4023:4090   */\n      tag_111\n        /* \"#utility.yul\":4087:4089   */\n      0x14\n        /* \"#utility.yul\":4082:4085   */\n      dup4\n        /* \"#utility.yul\":4023:4090   */\n      tag_59\n      jump\t// in\n    tag_111:\n        /* \"#utility.yul\":4016:4090   */\n      swap2\n      pop\n        /* \"#utility.yul\":4099:4192   */\n      tag_112\n        /* \"#utility.yul\":4188:4191   */\n      dup3\n        /* \"#utility.yul\":4099:4192   */\n      tag_62\n      jump\t// in\n    tag_112:\n        /* \"#utility.yul\":4217:4219   */\n      0x20\n        /* \"#utility.yul\":4212:4215   */\n      dup3\n        /* \"#utility.yul\":4208:4220   */\n      add\n        /* \"#utility.yul\":4201:4220   */\n      swap1\n      pop\n        /* \"#utility.yul\":3860:4226   */\n      swap2\n      swap1\n      pop\n      jump\t// out\n        /* \"#utility.yul\":4232:4651   */\n    tag_35:\n        /* \"#utility.yul\":4398:4402   */\n      0x00\n        /* \"#utility.yul\":4436:4438   */\n      0x20\n        /* \"#utility.yul\":4425:4434   */\n      dup3\n        /* \"#utility.yul\":4421:4439   */\n      add\n        /* \"#utility.yul\":4413:4439   */\n      swap1\n      pop\n        /* \"#utility.yul\":4485:4494   */\n      dup2\n        /* \"#utility.yul\":4479:4483   */\n      dup2\n        /* \"#utility.yul\":4475:4495   */\n      sub\n        /* \"#utility.yul\":4471:4472   */\n      0x00\n        /* \"#utility.yul\":4460:4469   */\n      dup4\n        /* \"#utility.yul\":4456:4473   */\n      add\n        /* \"#utility.yul\":4449:4496   */\n      mstore\n        /* \"#utility.yul\":4513:4644   */\n      tag_114\n        /* \"#utility.yul\":4639:4643   */\n      dup2\n        /* \"#utility.yul\":4513:4644   */\n      tag_63\n      jump\t// in\n    tag_114:\n        /* \"#utility.yul\":4505:4644   */\n      swap1\n      pop\n        /* \"#utility.yul\":4232:4651   */\n      swap2\n      swap1\n      pop\n      jump\t// out\n        /* \"#utility.yul\":4657:4804   */\n    tag_64:\n        /* \"#utility.yul\":4758:4769   */\n      0x00\n        /* \"#utility.yul\":4795:4798   */\n      dup2\n        /* \"#utility.yul\":4780:4798   */\n      swap1\n      pop\n        /* \"#utility.yul\":4657:4804   */\n      swap3\n      swap2\n      pop\n      pop\n      jump\t// out\n        /* \"#utility.yul\":4810:4924   */\n    tag_65:\n      pop\n      jump\t// out\n        /* \"#utility.yul\":4930:5328   */\n    tag_66:\n        /* \"#utility.yul\":5089:5092   */\n      0x00\n        /* \"#utility.yul\":5110:5193   */\n      tag_118\n        /* \"#utility.yul\":5191:5192   */\n      0x00\n        /* \"#utility.yul\":5186:5189   */\n      dup4\n        /* \"#utility.yul\":5110:5193   */\n      tag_64\n      jump\t// in\n    tag_118:\n        /* \"#utility.yul\":5103:5193   */\n      swap2\n      pop\n        /* \"#utility.yul\":5202:5295   */\n      tag_119\n        /* \"#utility.yul\":5291:5294   */\n      dup3\n        /* \"#utility.yul\":5202:5295   */\n      tag_65\n      jump\t// in\n    tag_119:\n        /* \"#utility.yul\":5320:5321   */\n      0x00\n        /* \"#utility.yul\":5315:5318   */\n      dup3\n        /* \"#utility.yul\":5311:5322   */\n      add\n        /* \"#utility.yul\":5304:5322   */\n      swap1\n      pop\n        /* \"#utility.yul\":4930:5328   */\n      swap2\n      swap1\n      pop\n      jump\t// out\n        /* \"#utility.yul\":5334:5713   */\n    tag_37:\n        /* \"#utility.yul\":5518:5521   */\n      0x00\n        /* \"#utility.yul\":5540:5687   */\n      tag_121\n        /* \"#utility.yul\":5683:5686   */\n      dup3\n        /* \"#utility.yul\":5540:5687   */\n      tag_66\n      jump\t// in\n    tag_121:\n        /* \"#utility.yul\":5533:5687   */\n      swap2\n      pop\n        /* \"#utility.yul\":5704:5707   */\n      dup2\n        /* \"#utility.yul\":5697:5707   */\n      swap1\n      pop\n        /* \"#utility.yul\":5334:5713   */\n      swap2\n      swap1\n      pop\n      jump\t// out\n        /* \"#utility.yul\":5719:5890   */\n    tag_67:\n        /* \"#utility.yul\":5859:5882   */\n      0x5472616e73666572656e6369612066616c6c6964610000000000000000000000\n        /* \"#utility.yul\":5855:5856   */\n      0x00\n        /* \"#utility.yul\":5847:5853   */\n      dup3\n        /* \"#utility.yul\":5843:5857   */\n      add\n        /* \"#utility.yul\":5836:5883   */\n      mstore\n        /* \"#utility.yul\":5719:5890   */\n      pop\n      jump\t// out\n        /* \"#utility.yul\":5896:6262   */\n    tag_68:\n        /* \"#utility.yul\":6038:6041   */\n      0x00\n        /* \"#utility.yul\":6059:6126   */\n      tag_124\n        /* \"#utility.yul\":6123:6125   */\n      0x15\n        /* \"#utility.yul\":6118:6121   */\n      dup4\n        /* \"#utility.yul\":6059:6126   */\n      tag_59\n      jump\t// in\n    tag_124:\n        /* \"#utility.yul\":6052:6126   */\n      swap2\n      pop\n        /* \"#utility.yul\":6135:6228   */\n      tag_125\n        /* \"#utility.yul\":6224:6227   */\n      dup3\n        /* \"#utility.yul\":6135:6228   */\n      tag_67\n      jump\t// in\n    tag_125:\n        /* \"#utility.yul\":6253:6255   */\n      0x20\n        /* \"#utility.yul\":6248:6251   */\n      dup3\n        /* \"#utility.yul\":6244:6256   */\n      add\n        /* \"#utility.yul\":6237:6256   */\n      swap1\n      pop\n        /* \"#utility.yul\":5896:6262   */\n      swap2\n      swap1\n      pop\n      jump\t// out\n        /* \"#utility.yul\":6268:6687   */\n    tag_43:\n        /* \"#utility.yul\":6434:6438   */\n      0x00\n        /* \"#utility.yul\":6472:6474   */\n      0x20\n        /* \"#utility.yul\":6461:6470   */\n      dup3\n        /* \"#utility.yul\":6457:6475   */\n      add\n        /* \"#utility.yul\":6449:6475   */\n      swap1\n      pop\n        /* \"#utility.yul\":6521:6530   */\n      dup2\n        /* \"#utility.yul\":6515:6519   */\n      dup2\n        /* \"#utility.yul\":6511:6531   */\n      sub\n        /* \"#utility.yul\":6507:6508   */\n      0x00\n        /* \"#utility.yul\":6496:6505   */\n      dup4\n        /* \"#utility.yul\":6492:6509   */\n      add\n        /* \"#utility.yul\":6485:6532   */\n      mstore\n        /* \"#utility.yul\":6549:6680   */\n      tag_127\n        /* \"#utility.yul\":6675:6679   */\n      dup2\n        /* \"#utility.yul\":6549:6680   */\n      tag_68\n      jump\t// in\n    tag_127:\n        /* \"#utility.yul\":6541:6680   */\n      swap1\n      pop\n        /* \"#utility.yul\":6268:6687   */\n      swap2\n      swap1\n      pop\n      jump\t// out\n\n    auxdata: 0xa2646970667358221220939f342eb3913681f74d4493b2be2dda054e9bda92d8eee6075878ba063651b864736f6c634300081a0033\n}\n",
				"bytecode": {
					"linkReferences": {},
					"object": "6080604052335f806101000a81548173ffffffffffffffffffffffffffffffffffffffff021916908373ffffffffffffffffffffffffffffffffffffffff160217905550610655806100505f395ff3fe608060405260043610610042575f3560e01c806313fc9b121461009b5780638da5cb5b146100a5578063a5505d80146100cf578063d5cf1273146100f757610097565b36610097573373ffffffffffffffffffffffffffffffffffffffff167f4374619f2e5fd6132e510408d9f57f96682c8d8be8400a2204dc0a0e7347adea3460405161008d919061037e565b60405180910390a2005b5f80fd5b6100a3610121565b005b3480156100b0575f80fd5b506100b9610171565b6040516100c691906103d6565b60405180910390f35b3480156100da575f80fd5b506100f560048036038101906100f09190610458565b610194565b005b348015610102575f80fd5b5061010b61035f565b604051610118919061037e565b60405180910390f35b3373ffffffffffffffffffffffffffffffffffffffff167f4374619f2e5fd6132e510408d9f57f96682c8d8be8400a2204dc0a0e7347adea34604051610167919061037e565b60405180910390a2565b5f8054906101000a900473ffffffffffffffffffffffffffffffffffffffff1681565b5f8054906101000a900473ffffffffffffffffffffffffffffffffffffffff1673ffffffffffffffffffffffffffffffffffffffff163373ffffffffffffffffffffffffffffffffffffffff1614610221576040517f08c379a0000000000000000000000000000000000000000000000000000000008152600401610218906104f0565b60405180910390fd5b80471015610264576040517f08c379a000000000000000000000000000000000000000000000000000000000815260040161025b90610558565b60405180910390fd5b5f8273ffffffffffffffffffffffffffffffffffffffff1682604051610289906105a3565b5f6040518083038185875af1925050503d805f81146102c3576040519150601f19603f3d011682016040523d82523d5f602084013e6102c8565b606091505b505090508061030c576040517f08c379a000000000000000000000000000000000000000000000000000000000815260040161030390610601565b60405180910390fd5b8273ffffffffffffffffffffffffffffffffffffffff167f8ab623b234bc5cc9673d9b6beca9ff6caa41ccd58da7d07e8b57692b9a1e343083604051610352919061037e565b60405180910390a2505050565b5f47905090565b5f819050919050565b61037881610366565b82525050565b5f6020820190506103915f83018461036f565b92915050565b5f73ffffffffffffffffffffffffffffffffffffffff82169050919050565b5f6103c082610397565b9050919050565b6103d0816103b6565b82525050565b5f6020820190506103e95f8301846103c7565b92915050565b5f80fd5b5f6103fd82610397565b9050919050565b61040d816103f3565b8114610417575f80fd5b50565b5f8135905061042881610404565b92915050565b61043781610366565b8114610441575f80fd5b50565b5f813590506104528161042e565b92915050565b5f806040838503121561046e5761046d6103ef565b5b5f61047b8582860161041a565b925050602061048c85828601610444565b9150509250929050565b5f82825260208201905092915050565b7f4e6f207469656e6573207065726d69736f0000000000000000000000000000005f82015250565b5f6104da601183610496565b91506104e5826104a6565b602082019050919050565b5f6020820190508181035f830152610507816104ce565b9050919050565b7f466f6e646f7320696e737566696369656e7465730000000000000000000000005f82015250565b5f610542601483610496565b915061054d8261050e565b602082019050919050565b5f6020820190508181035f83015261056f81610536565b9050919050565b5f81905092915050565b50565b5f61058e5f83610576565b915061059982610580565b5f82019050919050565b5f6105ad82610583565b9150819050919050565b7f5472616e73666572656e6369612066616c6c69646100000000000000000000005f82015250565b5f6105eb601583610496565b91506105f6826105b7565b602082019050919050565b5f6020820190508181035f830152610618816105df565b905091905056fea2646970667358221220939f342eb3913681f74d4493b2be2dda054e9bda92d8eee6075878ba063651b864736f6c634300081a0033",
					"opcodes": "PUSH1 0x80 PUSH1 0x40 MSTORE CALLER PUSH0 DUP1 PUSH2 0x100 EXP DUP2 SLOAD DUP2 PUSH20 0xFFFFFFFFFFFFFFFFFFFFFFFFFFFFFFFFFFFFFFFF MUL NOT AND SWAP1 DUP4 PUSH20 0xFFFFFFFFFFFFFFFFFFFFFFFFFFFFFFFFFFFFFFFF AND MUL OR SWAP1 SSTORE POP PUSH2 0x655 DUP1 PUSH2 0x50 PUSH0 CODECOPY PUSH0 RETURN INVALID PUSH1 0x80 PUSH1 0x40 MSTORE PUSH1 0x4 CALLDATASIZE LT PUSH2 0x42 JUMPI PUSH0 CALLDATALOAD PUSH1 0xE0 SHR DUP1 PUSH4 0x13FC9B12 EQ PUSH2 0x9B JUMPI DUP1 PUSH4 0x8DA5CB5B EQ PUSH2 0xA5 JUMPI DUP1 PUSH4 0xA5505D80 EQ PUSH2 0xCF JUMPI DUP1 PUSH4 0xD5CF1273 EQ PUSH2 0xF7 JUMPI PUSH2 0x97 JUMP JUMPDEST CALLDATASIZE PUSH2 0x97 JUMPI CALLER PUSH20 0xFFFFFFFFFFFFFFFFFFFFFFFFFFFFFFFFFFFFFFFF AND PUSH32 0x4374619F2E5FD6132E510408D9F57F96682C8D8BE8400A2204DC0A0E7347ADEA CALLVALUE PUSH1 0x40 MLOAD PUSH2 0x8D SWAP2 SWAP1 PUSH2 0x37E JUMP JUMPDEST PUSH1 0x40 MLOAD DUP1 SWAP2 SUB SWAP1 LOG2 STOP JUMPDEST PUSH0 DUP1 REVERT JUMPDEST PUSH2 0xA3 PUSH2 0x121 JUMP JUMPDEST STOP JUMPDEST CALLVALUE DUP1 ISZERO PUSH2 0xB0 JUMPI PUSH0 DUP1 REVERT JUMPDEST POP PUSH2 0xB9 PUSH2 0x171 JUMP JUMPDEST PUSH1 0x40 MLOAD PUSH2 0xC6 SWAP2 SWAP1 PUSH2 0x3D6 JUMP JUMPDEST PUSH1 0x40 MLOAD DUP1 SWAP2 SUB SWAP1 RETURN JUMPDEST CALLVALUE DUP1 ISZERO PUSH2 0xDA JUMPI PUSH0 DUP1 REVERT JUMPDEST POP PUSH2 0xF5 PUSH1 0x4 DUP1 CALLDATASIZE SUB DUP2 ADD SWAP1 PUSH2 0xF0 SWAP2 SWAP1 PUSH2 0x458 JUMP JUMPDEST PUSH2 0x194 JUMP JUMPDEST STOP JUMPDEST CALLVALUE DUP1 ISZERO PUSH2 0x102 JUMPI PUSH0 DUP1 REVERT JUMPDEST POP PUSH2 0x10B PUSH2 0x35F JUMP JUMPDEST PUSH1 0x40 MLOAD PUSH2 0x118 SWAP2 SWAP1 PUSH2 0x37E JUMP JUMPDEST PUSH1 0x40 MLOAD DUP1 SWAP2 SUB SWAP1 RETURN JUMPDEST CALLER PUSH20 0xFFFFFFFFFFFFFFFFFFFFFFFFFFFFFFFFFFFFFFFF AND PUSH32 0x4374619F2E5FD6132E510408D9F57F96682C8D8BE8400A2204DC0A0E7347ADEA CALLVALUE PUSH1 0x40 MLOAD PUSH2 0x167 SWAP2 SWAP1 PUSH2 0x37E JUMP JUMPDEST PUSH1 0x40 MLOAD DUP1 SWAP2 SUB SWAP1 LOG2 JUMP JUMPDEST PUSH0 DUP1 SLOAD SWAP1 PUSH2 0x100 EXP SWAP1 DIV PUSH20 0xFFFFFFFFFFFFFFFFFFFFFFFFFFFFFFFFFFFFFFFF AND DUP2 JUMP JUMPDEST PUSH0 DUP1 SLOAD SWAP1 PUSH2 0x100 EXP SWAP1 DIV PUSH20 0xFFFFFFFFFFFFFFFFFFFFFFFFFFFFFFFFFFFFFFFF AND PUSH20 0xFFFFFFFFFFFFFFFFFFFFFFFFFFFFFFFFFFFFFFFF AND CALLER PUSH20 0xFFFFFFFFFFFFFFFFFFFFFFFFFFFFFFFFFFFFFFFF AND EQ PUSH2 0x221 JUMPI PUSH1 0x40 MLOAD PUSH32 0x8C379A000000000000000000000000000000000000000000000000000000000 DUP2 MSTORE PUSH1 0x4 ADD PUSH2 0x218 SWAP1 PUSH2 0x4F0 JUMP JUMPDEST PUSH1 0x40 MLOAD DUP1 SWAP2 SUB SWAP1 REVERT JUMPDEST DUP1 SELFBALANCE LT ISZERO PUSH2 0x264 JUMPI PUSH1 0x40 MLOAD PUSH32 0x8C379A000000000000000000000000000000000000000000000000000000000 DUP2 MSTORE PUSH1 0x4 ADD PUSH2 0x25B SWAP1 PUSH2 0x558 JUMP JUMPDEST PUSH1 0x40 MLOAD DUP1 SWAP2 SUB SWAP1 REVERT JUMPDEST PUSH0 DUP3 PUSH20 0xFFFFFFFFFFFFFFFFFFFFFFFFFFFFFFFFFFFFFFFF AND DUP3 PUSH1 0x40 MLOAD PUSH2 0x289 SWAP1 PUSH2 0x5A3 JUMP JUMPDEST PUSH0 PUSH1 0x40 MLOAD DUP1 DUP4 SUB DUP2 DUP6 DUP8 GAS CALL SWAP3 POP POP POP RETURNDATASIZE DUP1 PUSH0 DUP2 EQ PUSH2 0x2C3 JUMPI PUSH1 0x40 MLOAD SWAP2 POP PUSH1 0x1F NOT PUSH1 0x3F RETURNDATASIZE ADD AND DUP3 ADD PUSH1 0x40 MSTORE RETURNDATASIZE DUP3 MSTORE RETURNDATASIZE PUSH0 PUSH1 0x20 DUP5 ADD RETURNDATACOPY PUSH2 0x2C8 JUMP JUMPDEST PUSH1 0x60 SWAP2 POP JUMPDEST POP POP SWAP1 POP DUP1 PUSH2 0x30C JUMPI PUSH1 0x40 MLOAD PUSH32 0x8C379A000000000000000000000000000000000000000000000000000000000 DUP2 MSTORE PUSH1 0x4 ADD PUSH2 0x303 SWAP1 PUSH2 0x601 JUMP JUMPDEST PUSH1 0x40 MLOAD DUP1 SWAP2 SUB SWAP1 REVERT JUMPDEST DUP3 PUSH20 0xFFFFFFFFFFFFFFFFFFFFFFFFFFFFFFFFFFFFFFFF AND PUSH32 0x8AB623B234BC5CC9673D9B6BECA9FF6CAA41CCD58DA7D07E8B57692B9A1E3430 DUP4 PUSH1 0x40 MLOAD PUSH2 0x352 SWAP2 SWAP1 PUSH2 0x37E JUMP JUMPDEST PUSH1 0x40 MLOAD DUP1 SWAP2 SUB SWAP1 LOG2 POP POP POP JUMP JUMPDEST PUSH0 SELFBALANCE SWAP1 POP SWAP1 JUMP JUMPDEST PUSH0 DUP2 SWAP1 POP SWAP2 SWAP1 POP JUMP JUMPDEST PUSH2 0x378 DUP2 PUSH2 0x366 JUMP JUMPDEST DUP3 MSTORE POP POP JUMP JUMPDEST PUSH0 PUSH1 0x20 DUP3 ADD SWAP1 POP PUSH2 0x391 PUSH0 DUP4 ADD DUP5 PUSH2 0x36F JUMP JUMPDEST SWAP3 SWAP2 POP POP JUMP JUMPDEST PUSH0 PUSH20 0xFFFFFFFFFFFFFFFFFFFFFFFFFFFFFFFFFFFFFFFF DUP3 AND SWAP1 POP SWAP2 SWAP1 POP JUMP JUMPDEST PUSH0 PUSH2 0x3C0 DUP3 PUSH2 0x397 JUMP JUMPDEST SWAP1 POP SWAP2 SWAP1 POP JUMP JUMPDEST PUSH2 0x3D0 DUP2 PUSH2 0x3B6 JUMP JUMPDEST DUP3 MSTORE POP POP JUMP JUMPDEST PUSH0 PUSH1 0x20 DUP3 ADD SWAP1 POP PUSH2 0x3E9 PUSH0 DUP4 ADD DUP5 PUSH2 0x3C7 JUMP JUMPDEST SWAP3 SWAP2 POP POP JUMP JUMPDEST PUSH0 DUP1 REVERT JUMPDEST PUSH0 PUSH2 0x3FD DUP3 PUSH2 0x397 JUMP JUMPDEST SWAP1 POP SWAP2 SWAP1 POP JUMP JUMPDEST PUSH2 0x40D DUP2 PUSH2 0x3F3 JUMP JUMPDEST DUP2 EQ PUSH2 0x417 JUMPI PUSH0 DUP1 REVERT JUMPDEST POP JUMP JUMPDEST PUSH0 DUP2 CALLDATALOAD SWAP1 POP PUSH2 0x428 DUP2 PUSH2 0x404 JUMP JUMPDEST SWAP3 SWAP2 POP POP JUMP JUMPDEST PUSH2 0x437 DUP2 PUSH2 0x366 JUMP JUMPDEST DUP2 EQ PUSH2 0x441 JUMPI PUSH0 DUP1 REVERT JUMPDEST POP JUMP JUMPDEST PUSH0 DUP2 CALLDATALOAD SWAP1 POP PUSH2 0x452 DUP2 PUSH2 0x42E JUMP JUMPDEST SWAP3 SWAP2 POP POP JUMP JUMPDEST PUSH0 DUP1 PUSH1 0x40 DUP4 DUP6 SUB SLT ISZERO PUSH2 0x46E JUMPI PUSH2 0x46D PUSH2 0x3EF JUMP JUMPDEST JUMPDEST PUSH0 PUSH2 0x47B DUP6 DUP3 DUP7 ADD PUSH2 0x41A JUMP JUMPDEST SWAP3 POP POP PUSH1 0x20 PUSH2 0x48C DUP6 DUP3 DUP7 ADD PUSH2 0x444 JUMP JUMPDEST SWAP2 POP POP SWAP3 POP SWAP3 SWAP1 POP JUMP JUMPDEST PUSH0 DUP3 DUP3 MSTORE PUSH1 0x20 DUP3 ADD SWAP1 POP SWAP3 SWAP2 POP POP JUMP JUMPDEST PUSH32 0x4E6F207469656E6573207065726D69736F000000000000000000000000000000 PUSH0 DUP3 ADD MSTORE POP JUMP JUMPDEST PUSH0 PUSH2 0x4DA PUSH1 0x11 DUP4 PUSH2 0x496 JUMP JUMPDEST SWAP2 POP PUSH2 0x4E5 DUP3 PUSH2 0x4A6 JUMP JUMPDEST PUSH1 0x20 DUP3 ADD SWAP1 POP SWAP2 SWAP1 POP JUMP JUMPDEST PUSH0 PUSH1 0x20 DUP3 ADD SWAP1 POP DUP2 DUP2 SUB PUSH0 DUP4 ADD MSTORE PUSH2 0x507 DUP2 PUSH2 0x4CE JUMP JUMPDEST SWAP1 POP SWAP2 SWAP1 POP JUMP JUMPDEST PUSH32 0x466F6E646F7320696E737566696369656E746573000000000000000000000000 PUSH0 DUP3 ADD MSTORE POP JUMP JUMPDEST PUSH0 PUSH2 0x542 PUSH1 0x14 DUP4 PUSH2 0x496 JUMP JUMPDEST SWAP2 POP PUSH2 0x54D DUP3 PUSH2 0x50E JUMP JUMPDEST PUSH1 0x20 DUP3 ADD SWAP1 POP SWAP2 SWAP1 POP JUMP JUMPDEST PUSH0 PUSH1 0x20 DUP3 ADD SWAP1 POP DUP2 DUP2 SUB PUSH0 DUP4 ADD MSTORE PUSH2 0x56F DUP2 PUSH2 0x536 JUMP JUMPDEST SWAP1 POP SWAP2 SWAP1 POP JUMP JUMPDEST PUSH0 DUP2 SWAP1 POP SWAP3 SWAP2 POP POP JUMP JUMPDEST POP JUMP JUMPDEST PUSH0 PUSH2 0x58E PUSH0 DUP4 PUSH2 0x576 JUMP JUMPDEST SWAP2 POP PUSH2 0x599 DUP3 PUSH2 0x580 JUMP JUMPDEST PUSH0 DUP3 ADD SWAP1 POP SWAP2 SWAP1 POP JUMP JUMPDEST PUSH0 PUSH2 0x5AD DUP3 PUSH2 0x583 JUMP JUMPDEST SWAP2 POP DUP2 SWAP1 POP SWAP2 SWAP1 POP JUMP JUMPDEST PUSH32 0x5472616E73666572656E6369612066616C6C6964610000000000000000000000 PUSH0 DUP3 ADD MSTORE POP JUMP JUMPDEST PUSH0 PUSH2 0x5EB PUSH1 0x15 DUP4 PUSH2 0x496 JUMP JUMPDEST SWAP2 POP PUSH2 0x5F6 DUP3 PUSH2 0x5B7 JUMP JUMPDEST PUSH1 0x20 DUP3 ADD SWAP1 POP SWAP2 SWAP1 POP JUMP JUMPDEST PUSH0 PUSH1 0x20 DUP3 ADD SWAP1 POP DUP2 DUP2 SUB PUSH0 DUP4 ADD MSTORE PUSH2 0x618 DUP2 PUSH2 0x5DF JUMP JUMPDEST SWAP1 POP SWAP2 SWAP1 POP JUMP INVALID LOG2 PUSH5 0x6970667358 0x22 SLT KECCAK256 SWAP4 SWAP16 CALLVALUE 0x2E 0xB3 SWAP2 CALLDATASIZE DUP2 0xF7 0x4D PREVRANDAO SWAP4 0xB2 0xBE 0x2D 0xDA SDIV 0x4E SWAP12 0xDA SWAP3 0xD8 0xEE 0xE6 SMOD PC PUSH25 0xBA063651B864736F6C634300081A0033000000000000000000 "
				},
				"gasEstimates": {
					"creation": {
						"codeDepositCost": "324200",
						"executionCost": "24601",
						"totalCost": "348801"
					},
					"external": {
						"donar()": "1667",
						"enviarETH(address,uint256)": "infinite",
						"owner()": "2505",
						"verBalance()": "378"
					}
				},
				"methodIdentifiers": {
					"donar()": "13fc9b12",
					"enviarETH(address,uint256)": "a5505d80",
					"owner()": "8da5cb5b",
					"verBalance()": "d5cf1273"
				}
			},
			"storageLayout": {
				"storage": [
					{
						"astId": 4,
						"contract": "contracts/WalletMultiChain.sol:WalletMultiChain",
						"label": "owner",
						"offset": 0,
						"slot": "0",
						"type": "t_address"
					}
				],
				"types": {
					"t_address": {
						"encoding": "inplace",
						"label": "address",
						"numberOfBytes": "20"
					}
				}
			},
			"userdoc": {
				"events": {
					"DepositoRecibido(address,uint256)": {
						"notice": "Emite un evento cuando el contrato recibe ETH"
					},
					"TransferenciaRealizada(address,uint256)": {
						"notice": "Emite un evento cuando se transfiere ETH a otra cuenta"
					}
				},
				"kind": "user",
				"methods": {
					"donar()": {
						"notice": "Permite que cualquiera pueda enviar ETH como donación al contrato."
					},
					"enviarETH(address,uint256)": {
						"notice": "Permite al owner enviar ETH desde el contrato a otra dirección."
					},
					"verBalance()": {
						"notice": "Ver el saldo total del contrato."
					}
				},
				"notice": "Permite recibir y enviar ETH desde este contrato en redes compatibles como Ethereum, Holesky, etc.",
				"version": 1
			}
		}
	}
}